:100000000C942A000C94B70D0C94350E0C94AC0E85
:100010000C9447000C9447000C942E1E0C94B01DB9
:100020000C94EF1D0C94711D0C94DC1B0C941B1C88
:100030000C9447000C9447000C9447000C94470024
:100040000C94D8090C9447000C9447000C9447007A
:100050000C94470011241FBECFE5D4E0DEBFCDBF16
:1000600013E0A0E6B0E0E6EAF5E602C005900D92E6
:10007000A639B107D9F713E0A6E9B3E001C01D9294
:10008000AA3CB107E1F70E94351F0C94D1320C94C1
:100090000000EF92FF920F931F937B018C0120E0F1
:1000A00030E040E05FE40E94490388238CF0C801FF
:1000B000B70120E030E040E05FE40E94C1010E940F
:1000C000A9039B01AC01205030404040504806C07D
:1000D000C801B7010E94A9039B01AC01B901CA0183
:1000E0001F910F91FF90EF900895A0E0B0E0EBE733
:1000F000F0E00C949A32DC012B01FA019C919230D1
:1001000008F439C1EB018881823008F433C194309E
:1001100069F4843009F02FC111969C91119789815F
:10012000981709F428C1A1E6B2E025C1843009F48A
:1001300021C18230A9F4923009F01DC19A01AD01AC
:1001400088E0EA010990AE01E90109929E0181501F
:10015000C1F7E201898111969C918923818308C1AD
:10016000923009F407C112962D903C901397EB0141
:100170008A819B811496AD90BD90CD90DC901797AD
:10018000EC80FD800E811F819101281B390BB90184
:1001900037FF04C066277727621B730B6032710537
:1001A0000CF061C0121613066CF537014801062EDB
:1001B00004C096948794779467940A94D2F721E0C8
:1001C00030E040E050E004C0220F331F441F551FB1
:1001D0006A95D2F721503040404050402E213F21B7
:1001E00040235123211531054105510521F021E01E
:1001F00030E040E050E079018A01E628F72808293C
:1002000019293CC0232BD1F1260E371E350146019A
:10021000062E04C096948794779467940A94D2F734
:1002200021E030E040E050E004C0220F331F441FC3
:10023000551F6A95D2F721503040404050402A2146
:100240003B214C215D21211531054105510521F04E
:1002500021E030E040E050E059016A01A628B728CB
:10026000C828D9280BC0821593052CF01C01AA249C
:10027000BB24650103C0EE24FF24870111969C91E5
:10028000D20111968C91981709F445C0992339F041
:10029000A80197012A193B094C095D0906C0A6016E
:1002A00095012E193F09400B510B57FD08C01182D3
:1002B0003382228224833583468357831DC081E0A5
:1002C00081833382228288279927DC01821B930B4A
:1002D000A40BB50B84839583A683B7830DC0220F2F
:1002E000331F441F551F24833583468357838281E0
:1002F000938101979383828324813581468157813D
:10030000DA01C9010197A109B1098F5F9F4FAF4F72
:10031000BF4328F30BC0918333822282EA0CFB1C7B
:100320000C1D1D1DE482F5820683178383E0808304
:10033000248135814681578157FF1AC0C901AA27F8
:1003400097FDA095BA2F81709070A070B0705695EF
:10035000479537952795822B932BA42BB52B848318
:100360009583A683B7838281938101969383828349
:10037000DF0101C0D201CD01CDB7DEB7E2E10C94BF
:10038000B632A0E2B0E0E7ECF1E00C94A63269836B
:100390007A838B839C832D833E834F835887E9E048
:1003A000EE2EF12CEC0EFD1ECE010196B7010E943F
:1003B0009A058E010F5E1F4FCE010596B8010E946F
:1003C0009A058A8991E089278A8BC701B801AE0115
:1003D000475E5F4F0E9475000E94C504A096E6E04C
:1003E0000C94C232A0E2B0E0E8EFF1E00C94A63247
:1003F00069837A838B839C832D833E834F835887C5
:10040000F9E0EF2EF12CEC0EFD1ECE010196B701A6
:100410000E949A058E010F5E1F4FCE010596B8010E
:100420000E949A05C701B801AE01475E5F4F0E9466
:1004300075000E94C504A096E6E00C94C232A0E2CA
:10044000B0E0E5E2F2E00C949A3269837A838B8320
:100450009C832D833E834F835887CE010196BE0136
:10046000675F7F4F0E949A05CE010596BE016F5EC1
:100470007F4F0E949A059985923088F08989823051
:10048000C8F0943019F4823051F404C0843029F457
:10049000923081F481E692E0C6C0923049F420E0C7
:1004A0009A858A89981321E02A87CE010996BBC0D4
:1004B000823049F420E09A858A89981321E02A8BBA
:1004C000CE014196B0C02D843E844F8458886D88FB
:1004D0007E888F88988CEE24FF248701AA24BB2471
:1004E000650140E050E060E070E0E0E0F0E0C10174
:1004F00081709070892BE9F0E60CF71C081D191D1E
:100500009A01AB012A0D3B1D4C1D5D1D80E090E062
:10051000A0E0B0E0E614F7040805190520F481E036
:1005200090E0A0E0B0E0BA01A901480F591F6A1F8E
:100530007B1FAA0CBB1CCC1CDD1C97FE08C081E0F5
:1005400090E0A0E0B0E0A82AB92ACA2ADB2A3196B6
:10055000E032F10549F0660C771C881C991C569412
:10056000479437942794C3CFFA85EA892B893C892D
:100570008B859C85280F391F2E5F3F4F17C0CA01FE
:1005800081709070892B61F016950795F794E79428
:1005900080E090E0A0E0B0E8E82AF92A0A2B1B2BC3
:1005A00076956795579547952F5F3F4F77FDE7CF36
:1005B0000CC0440F551F661F771F17FD4160EE0CDE
:1005C000FF1C001F111F21503040403090E05907A0
:1005D00090E0690790E4790760F32B8F3C8FDB0193
:1005E000CA018F779070A070B07080349105A1051A
:1005F000B10561F447FD0AC0E114F10401051105DC
:1006000029F0405C5F4F6F4F7F4F40781A8EFE1786
:1006100011F081E08A8F4D8F5E8F6F8F78A383E01A
:10062000898FCE0149960E94C504A096E2E10C9400
:10063000B632A8E1B0E0EFE1F3E00C94A6326983B2
:100640007A838B839C832D833E834F83588789E0F5
:10065000E82EF12CEC0EFD1ECE010196B7010E9492
:100660009A058E010F5E1F4FCE010596B8010E94BC
:100670009A058985823040F08989823028F0C70147
:10068000B8010E94120601C08FEF6896E6E00C9454
:10069000C232A8E1B0E0EFE4F3E00C94A632698343
:1006A0007A838B839C832D833E834F83588789E095
:1006B000E82EF12CEC0EFD1ECE010196B7010E9432
:1006C0009A058E010F5E1F4FCE010596B8010E945C
:1006D0009A058985823040F08989823028F0C701E7
:1006E000B8010E94120601C08FEF6896E6E00C94F4
:1006F000C232A8E1B0E0EFE7F3E00C94A6326983E0
:100700007A838B839C832D833E834F83588789E034
:10071000E82EF12CEC0EFD1ECE010196B7010E94D1
:100720009A058E010F5E1F4FCE010596B8010E94FB
:100730009A058985823040F08989823028F0C70186
:10074000B8010E94120601C081E06896E6E00C94B0
:10075000C232ACE0B0E0EFEAF3E00C94AA32698375
:100760007A838B839C83CE010196BE016B5F7F4FA2
:100770000E949A058D81823061F1823050F184307F
:1007800021F48E81882351F12EC02F81388537FDC9
:1007900020C06E812F3131051CF06623F9F023C093
:1007A0008EE190E0821B930B29853A854B855C8511
:1007B00004C056954795379527958A95D2F76623B5
:1007C000B1F050954095309521953F4F4F4F5F4F79
:1007D0000EC020E030E040E050E009C02FEF3FEFD6
:1007E0004FEF5FE704C020E030E040E050E8B9019F
:1007F000CA012C96E2E00C94C632A8E0B0E0E3E037
:10080000F4E00C94A2327B018C0161157105810525
:10081000910519F482E0898360C083E089838EE1C9
:10082000C82ED12CDC82CB82ED82FE820F8318870A
:10083000C801B7010E947604FC013197F7FF3BC065
:10084000222733272E1B3F0B57016801022E04C0BD
:10085000D694C794B794A7940A94D2F740E050E096
:1008600060E070E081E090E0A0E0B0E004C0880FBC
:10087000991FAA1FBB1F2A95D2F70197A109B10999
:100880008E219F21A023B1230097A105B10521F05E
:1008900041E050E060E070E04A295B296C297D2945
:1008A0004D835E836F8378878EE190E08E1B9F0B74
:1008B0009C838B8312C0309781F00E2E04C0EE0C07
:1008C000FF1C001F111F0A94D2F7ED82FE820F83D6
:1008D0001887CE1ADF0ADC82CB821A82CE010196FB
:1008E0000E94C5042896EAE00C94BE32EF92FF9273
:1008F0000F931F937B018C0180E0E81680E0F806DF
:1009000081E0080780E0180788F48FEFE816F1040B
:100910000105110531F028F088E090E0A0E0B0E09A
:1009200017C080E090E0A0E0B0E012C080E0E816E0
:1009300080E0F80680E0080781E0180728F088E1E9
:1009400090E0A0E0B0E004C080E190E0A0E0B0E082
:1009500020E230E040E050E0281B390B4A0B5B0BF3
:1009600004C016950795F794E7948A95D2F7F70196
:10097000E759FD4F8081281B310941095109C901FF
:100980001F910F91FF90EF900895DF92EF92FF92E9
:100990000F931F93FC01E480F58006811781D180BD
:1009A0008081823048F480E090E0A0E1B0E0E82A65
:1009B000F92A0A2B1B2BA5C0843009F49FC0823072
:1009C00021F4EE24FF24870105C0E114F1040105A0
:1009D000110519F4E0E0F0E096C0628173819FEFA9
:1009E000623879070CF05BC022E83FEF261B370B1B
:1009F0002A3131052CF020E030E040E050E02AC000
:100A0000B801A701022E04C07695679557954795C2
:100A10000A94D2F781E090E0A0E0B0E004C0880F33
:100A2000991FAA1FBB1F2A95D2F70197A109B109E7
:100A30008E219F21A023B1230097A105B10521F0AC
:100A400081E090E0A0E0B0E09A01AB01282B392BC7
:100A50004A2B5B2BDA01C9018F779070A070B070C0
:100A600080349105A105B10539F427FF09C0205C48
:100A70003F4F4F4F5F4F04C0215C3F4F4F4F5F4F81
:100A8000E0E0F0E02030A0E03A07A0E04A07A0E470
:100A90005A0710F0E1E0F0E079018A0127C06038E0
:100AA000710564F5FB01E158FF4FD801C7018F774D
:100AB0009070A070B07080349105A105B10539F433
:100AC000E7FE0DC080E490E0A0E0B0E004C08FE35A
:100AD00090E0A0E0B0E0E80EF91E0A1F1B1F17FF10
:100AE00005C016950795F794E794319687E016951B
:100AF0000795F794E7948A95D1F705C0EE24FF2473
:100B00008701EFEFF0E06E2F679566276795902FCE
:100B10009F77D794DD24D7948E2F8695492F462B27
:100B2000582F5D29B701CA011F910F91FF90EF90D7
:100B3000DF900895FC01DB01408151812281622F09
:100B40006F7770E0221F2227221F9381892F880F41
:100B5000822B282F30E0991F9927991F11969C937B
:100B6000119721153105A9F541155105610571054B
:100B700011F482E037C082E89FEF13969C938E9326
:100B800012979A01AB0167E0220F331F441F551FD4
:100B90006A95D1F783E08C930DC0220F331F441F59
:100BA000551F12968D919C911397019713969C93C4
:100BB0008E931297203080E0380780E0480780E469
:100BC000580758F314962D933D934D935C931797C4
:100BD00008952F3F310579F44115510561057105DF
:100BE00019F484E08C93089564FF03C081E08C9332
:100BF00012C01C9210C02F57304013963C932E9376
:100C0000129783E08C9387E0440F551F661F771F70
:100C10008A95D1F7706414964D935D936D937C9390
:100C2000179708951F93DC01FB019C91923008F403
:100C300047C08081823008F443C0943051F411964B
:100C40001C91843099F58181682F70E0611B7109D6
:100C50003FC0843021F0923031F48230B9F181818B
:100C6000882389F12DC011961C9111978230F1F0E3
:100C700081811817D9F412962D913C911397828196
:100C800093818217930794F028173907BCF01496C4
:100C90008D919D910D90BC91A02D2481358146812F
:100CA0005781281739074A075B0718F4112341F0C9
:100CB0000AC082179307A407B50740F4112319F05F
:100CC00061E070E005C06FEF7FEF02C060E070E0B0
:100CD000CB011F910895DF93CF93CDB7DEB7A7E285
:100CE000B0E0E7E2F0E0808180648C93A7E2B0E0BE
:100CF000E7E2F0E080818F778C93A7E2B0E0E7E253
:100D0000F0E080818F7D8C93A6E2B0E0E6E2F0E037
:100D1000808181608C93A6E2B0E0E6E2F0E0808121
:100D200082608C93A6E2B0E0E6E2F0E0808184602D
:100D30008C93A6E2B0E0E6E2F0E0808180688C93DC
:100D4000A6E2B0E0E6E2F0E0808180618C93A6E26A
:100D5000B0E0E6E2F0E0808188608C93CF91DF9193
:100D60000895DF93CF9300D000D00F92CDB7DEB7B8
:100D70008B831A8219828B81883008F059C18B814C
:100D8000282F30E03D832C838C819D818330910519
:100D900009F49BC02C813D81243031058CF48C8179
:100DA0009D818130910509F448C02C813D8122301C
:100DB00031050CF066C08C819D810097D1F038C15F
:100DC0002C813D812530310509F4C7C08C819D817E
:100DD000853091050CF49DC02C813D812630310574
:100DE00009F4DFC08C819D818730910509F4FDC035
:100DF0001FC1A7E2B0E0E7E2F0E080818E7F8C9334
:100E0000A7E2B0E0E7E2F0E080818D7F8C93A7E27B
:100E1000B0E0E7E2F0E080818B7F8C93A7E2B0E066
:100E2000E7E2F0E08081877F8C93A7E2B0E0E7E221
:100E3000F0E080818F7E8C93FBC0A7E2B0E0E7E218
:100E4000F0E0808181608C93A7E2B0E0E7E2F0E01F
:100E500080818D7F8C93A7E2B0E0E7E2F0E08081B3
:100E60008B7F8C93A7E2B0E0E7E2F0E08081877FA0
:100E70008C93A7E2B0E0E7E2F0E080818F7E8C9374
:100E8000D7C0A7E2B0E0E7E2F0E080818E7F8C93EC
:100E9000A7E2B0E0E7E2F0E0808182608C93A7E215
:100EA000B0E0E7E2F0E080818B7F8C93A7E2B0E0D6
:100EB000E7E2F0E08081877F8C93A7E2B0E0E7E291
:100EC000F0E080818F7E8C93B3C0A7E2B0E0E7E2D0
:100ED000F0E0808181608C93A7E2B0E0E7E2F0E08F
:100EE000808182608C93A7E2B0E0E7E2F0E080814D
:100EF0008B7F8C93A7E2B0E0E7E2F0E08081877F10
:100F00008C93A7E2B0E0E7E2F0E080818F7E8C93E3
:100F10008FC0A7E2B0E0E7E2F0E080818E7F8C93A3
:100F2000A7E2B0E0E7E2F0E080818D7F8C93A7E25A
:100F3000B0E0E7E2F0E0808184608C93A7E2B0E06B
:100F4000E7E2F0E08081877F8C93A7E2B0E0E7E200
:100F5000F0E080818F7E8C936BC0A7E2B0E0E7E287
:100F6000F0E0808181608C93A7E2B0E0E7E2F0E0FE
:100F700080818D7F8C93A7E2B0E0E7E2F0E0808192
:100F800084608C93A7E2B0E0E7E2F0E08081877FA5
:100F90008C93A7E2B0E0E7E2F0E080818F7E8C9353
:100FA00047C0A7E2B0E0E7E2F0E080818E7F8C935B
:100FB000A7E2B0E0E7E2F0E0808182608C93A7E2F4
:100FC000B0E0E7E2F0E0808184608C93A7E2B0E0DB
:100FD000E7E2F0E08081877F8C93A7E2B0E0E7E270
:100FE000F0E080818F7E8C9323C0A7E2B0E0E7E23F
:100FF000F0E0808181608C93A7E2B0E0E7E2F0E06E
:10100000808182608C93A7E2B0E0E7E2F0E080812B
:1010100084608C93A7E2B0E0E7E2F0E08081877F14
:101020008C93A7E2B0E0E7E2F0E080818F7E8C93C2
:10103000A6E2B0E0E6E2F0E0808180648C93E6E234
:10104000F0E0808182958F70882F90E081709070A1
:101050000097A9F3A6E2B0E0E6E2F0E080818061CB
:101060008C93E4E2F0E0808191819A838983898185
:101070009A810F900F900F900F900F90CF91DF916A
:101080000895DF93CF9300D00F92CDB7DEB7898359
:101090008981883008F059C18981282F30E03B834D
:1010A0002A838A819B818330910509F49BC02A8120
:1010B0003B81243031058CF48A819B8181309105FC
:1010C00009F448C02A813B81223031050CF066C00A
:1010D0008A819B810097D1F038C12A813B812530DC
:1010E000310509F4C7C08A819B81853091050CF4D4
:1010F0009DC02A813B812630310509F4DFC08A81F9
:101100009B818730910509F4FDC01FC1A7E2B0E0C3
:10111000E7E2F0E080818E7F8C93A7E2B0E0E7E227
:10112000F0E080818D7F8C93A7E2B0E0E7E2F0E011
:1011300080818B7F8C93A7E2B0E0E7E2F0E08081D2
:10114000877F8C93A7E2B0E0E7E2F0E080818F7EBA
:101150008C93FBC0A7E2B0E0E7E2F0E08081816021
:101160008C93A7E2B0E0E7E2F0E080818D7F8C9382
:10117000A7E2B0E0E7E2F0E080818B7F8C93A7E20A
:10118000B0E0E7E2F0E08081877F8C93A7E2B0E0F7
:10119000E7E2F0E080818F7E8C93D7C0A7E2B0E0D9
:1011A000E7E2F0E080818E7F8C93A7E2B0E0E7E297
:1011B000F0E0808182608C93A7E2B0E0E7E2F0E0AB
:1011C00080818B7F8C93A7E2B0E0E7E2F0E0808142
:1011D000877F8C93A7E2B0E0E7E2F0E080818F7E2A
:1011E0008C93B3C0A7E2B0E0E7E2F0E080818160D9
:1011F0008C93A7E2B0E0E7E2F0E0808182608C931C
:10120000A7E2B0E0E7E2F0E080818B7F8C93A7E279
:10121000B0E0E7E2F0E08081877F8C93A7E2B0E066
:10122000E7E2F0E080818F7E8C938FC0A7E2B0E090
:10123000E7E2F0E080818E7F8C93A7E2B0E0E7E206
:10124000F0E080818D7F8C93A7E2B0E0E7E2F0E0F0
:10125000808184608C93A7E2B0E0E7E2F0E08081D7
:10126000877F8C93A7E2B0E0E7E2F0E080818F7E99
:101270008C936BC0A7E2B0E0E7E2F0E08081816090
:101280008C93A7E2B0E0E7E2F0E080818D7F8C9361
:10129000A7E2B0E0E7E2F0E0808184608C93A7E20F
:1012A000B0E0E7E2F0E08081877F8C93A7E2B0E0D6
:1012B000E7E2F0E080818F7E8C9347C0A7E2B0E048
:1012C000E7E2F0E080818E7F8C93A7E2B0E0E7E276
:1012D000F0E0808182608C93A7E2B0E0E7E2F0E08A
:1012E000808184608C93A7E2B0E0E7E2F0E0808147
:1012F000877F8C93A7E2B0E0E7E2F0E080818F7E09
:101300008C9323C0A7E2B0E0E7E2F0E08081816047
:101310008C93A7E2B0E0E7E2F0E0808182608C93FA
:10132000A7E2B0E0E7E2F0E0808184608C93A7E27E
:10133000B0E0E7E2F0E08081877F8C93A7E2B0E045
:10134000E7E2F0E080818F7E8C93A6E2B0E0E6E2F7
:10135000F0E0808180648C930F900F900F90CF917C
:10136000DF910895DF93CF9300D0CDB7DEB71A8217
:101370001982E4E2F0E0808191819A8389838981F6
:101380009A810F900F90CF91DF910895DF93CF93C3
:1013900000D0CDB7DEB79A83898389819A819093F3
:1013A0009703809396030F900F90CF91DF9108954C
:1013B0001F920F920FB60F9211242F933F934F93CA
:1013C0005F936F937F938F939F93AF93BF93EF93AD
:1013D000FF93DF93CF93CDB7DEB7E0919603F09103
:1013E00097030995CF91DF91FF91EF91BF91AF9155
:1013F0009F918F917F916F915F914F913F912F912D
:101400000F900FBE0F901F901895DF93CF93CDB71D
:10141000DEB727970FB6F894DEBF0FBECDBF898326
:101420006A834B838981843008F0EEC08A818830DA
:1014300008F0EAC08B81813009F06FC08981282FC4
:1014400030E03F832E838E819F818130910549F169
:101450002E813F81223031052CF48E819F810097AF
:1014600061F0D2C02E813F812230310571F18E8131
:101470009F8183309105E9F1C7C0AAE3B0E0EAE3B8
:10148000F0E08081482F8A81282F30E081E090E0D1
:10149000022E02C0880F991F0A94E2F7842B8C93C6
:1014A000B3C0A7E3B0E0E7E3F0E08081482F8A8192
:1014B000282F30E081E090E0022E02C0880F991FB3
:1014C0000A94E2F7842B8C939FC0A4E3B0E0E4E39A
:1014D000F0E08081482F8A81282F30E081E090E081
:1014E000022E02C0880F991F0A94E2F7842B8C9376
:1014F0008BC0A1E3B0E0E1E3F0E08081482F8A8176
:10150000282F30E081E090E0022E02C0880F991F62
:101510000A94E2F7842B8C9377C08B81882309F09F
:1015200073C08981282F30E03D832C838C819D817D
:101530008130910559F12C813D81223031052CF407
:101540008C819D81009769F05FC02C813D812230A4
:10155000310589F18C819D818330910509F440C06A
:1015600053C0AAE3B0E0EAE3F0E08081482F8A812B
:10157000282F30E081E090E0022E02C0880F991FF2
:101580000A94E2F7809584238C933EC0A7E3B0E0F1
:10159000E7E3F0E08081482F8A81282F30E081E066
:1015A00090E0022E02C0880F991F0A94E2F78095FE
:1015B00084238C9329C0A4E3B0E0E4E3F0E08081CD
:1015C000482F8A81282F30E081E090E0022E02C06F
:1015D000880F991F0A94E2F7809584238C9314C096
:1015E000A1E3B0E0E1E3F0E08081482F8A81282F79
:1015F00030E081E090E0022E02C0880F991F0A942B
:10160000E2F7809584238C9327960FB6F894DEBF7B
:101610000FBECDBFCF91DF910895DF93CF93CDB7AC
:10162000DEB727970FB6F894DEBF0FBECDBF898314
:101630006A834B838981843008F0EEC08A818830C8
:1016400008F0EAC08B81813009F06FC08981282FB2
:1016500030E03F832E838E819F818130910549F157
:101660002E813F81223031052CF48E819F8100979D
:1016700061F0D2C02E813F812230310571F18E811F
:101680009F8183309105E9F1C7C0ABE3B0E0EBE3A4
:10169000F0E08081482F8A81282F30E081E090E0BF
:1016A000022E02C0880F991F0A94E2F7842B8C93B4
:1016B000B3C0A8E3B0E0E8E3F0E08081482F8A817E
:1016C000282F30E081E090E0022E02C0880F991FA1
:1016D0000A94E2F7842B8C939FC0A5E3B0E0E5E386
:1016E000F0E08081482F8A81282F30E081E090E06F
:1016F000022E02C0880F991F0A94E2F7842B8C9364
:101700008BC0A2E3B0E0E2E3F0E08081482F8A8161
:10171000282F30E081E090E0022E02C0880F991F50
:101720000A94E2F7842B8C9377C08B81882309F08D
:1017300073C08981282F30E03D832C838C819D816B
:101740008130910559F12C813D81223031052CF4F5
:101750008C819D81009769F05FC02C813D81223092
:10176000310589F18C819D818330910509F440C058
:1017700053C0ABE3B0E0EBE3F0E08081482F8A8117
:10178000282F30E081E090E0022E02C0880F991FE0
:101790000A94E2F7809584238C933EC0A8E3B0E0DE
:1017A000E8E3F0E08081482F8A81282F30E081E053
:1017B00090E0022E02C0880F991F0A94E2F78095EC
:1017C00084238C9329C0A5E3B0E0E5E3F0E08081B9
:1017D000482F8A81282F30E081E090E0022E02C05D
:1017E000880F991F0A94E2F7809584238C9314C084
:1017F000A2E3B0E0E2E3F0E08081482F8A81282F65
:1018000030E081E090E0022E02C0880F991F0A9418
:10181000E2F7809584238C9327960FB6F894DEBF69
:101820000FBECDBFCF91DF910895DF93CF9300D04E
:1018300000D00F92CDB7DEB78A836B838FEF898399
:101840008A81843008F06BC08B81883008F067C0D3
:101850008A81282F30E03D832C834C815D8141308B
:10186000510541F18C819D818230910534F42C81A8
:101870003D812115310561F052C04C815D814230BE
:10188000510551F18C819D8183309105B9F147C09B
:10189000E9E3F0E08081282F30E08B81882F90E011
:1018A000A90102C0559547958A95E2F7CA01817052
:1018B000898335C0E6E3F0E08081282F30E08B811A
:1018C000882F90E0A90102C0559547958A95E2F7C7
:1018D000CA018170898323C0E3E3F0E08081282F6F
:1018E00030E08B81882F90E0A90102C05595479583
:1018F0008A95E2F7CA018170898311C0E0E3F0E0C4
:101900008081282F30E08B81882F90E0A90102C0D0
:10191000559547958A95E2F7CA0181708983898137
:101920000F900F900F900F900F90CF91DF9108952F
:10193000DF93CF9300D000D0CDB7DEB789836A8321
:101940008981843090F58981282F30E03C832B8376
:101950008B819C8181309105D1F02B813C8122309B
:1019600031052CF48B819C81009761F01EC02B8186
:101970003C812230310581F08B819C81833091053F
:1019800081F013C0EAE3F0E08A8180830EC0E7E3D0
:10199000F0E08A81808309C0E4E3F0E08A818083FB
:1019A00004C0E1E3F0E08A8180830F900F900F90F4
:1019B0000F90CF91DF910895DF93CF9300D000D0A7
:1019C000CDB7DEB789836A838981843090F58981B8
:1019D000282F30E03C832B838B819C8181309105C3
:1019E000D1F02B813C81223031052CF48B819C81FC
:1019F000009761F01EC02B813C812230310581F0BF
:101A00008B819C818330910581F013C0EBE3F0E082
:101A10008A8180830EC0E8E3F0E08A81808309C078
:101A2000E5E3F0E08A81808304C0E2E3F0E08A81AC
:101A300080830F900F900F900F90CF91DF910895BA
:101A4000DF93CF9300D000D0CDB7DEB78A838FEF7E
:101A500089838A81843090F58A81282F30E03C8305
:101A60002B838B819C8181309105D1F02B813C812E
:101A7000223031052CF48B819C81009761F01EC0CF
:101A80002B813C812230310581F08B819C81833018
:101A9000910581F013C0E9E3F0E0808189830EC0F5
:101AA000E6E3F0E08081898309C0E3E3F0E0808130
:101AB000898304C0E0E3F0E08081898389810F900D
:101AC0000F900F900F90CF91DF910895DF93CF93F8
:101AD000CDB7DEB7A5E5B0E0E5E5F0E08081816057
:101AE0008C93A5E5B0E0E5E5F0E080818D7F8C93F7
:101AF000ABE5B0E0EBE5F0E080818F7B8C93AAE56D
:101B0000B0E0EAE5F0E0808180648C93CF91DF91D2
:101B10000895DF93CF93CDB7DEB7ABE5B0E0EBE54B
:101B2000F0E0808180648C93CF91DF910895DF9302
:101B3000CF93CDB7DEB7ABE5B0E0EBE5F0E0808169
:101B40008F7B8C93CF91DF910895DF93CF9300D05B
:101B5000CDB7DEB79A83898389819A81909399035F
:101B6000809398030F900F90CF91DF9108951F926B
:101B70000F920FB60F9211242F933F934F935F93C1
:101B80006F937F938F939F93AF93BF93EF93FF9345
:101B9000DF93CF93CDB7DEB7E0919803F09199032F
:101BA0000995CF91DF91FF91EF91BF91AF919F91F7
:101BB0008F917F916F915F914F913F912F910F90F6
:101BC0000FBE0F901F901895DF93CF93CDB7DEB760
:101BD000A5E5B0E0E5E5F0E0808184608C93A5E5C3
:101BE000B0E0E5E5F0E08081877F8C93ABE5B0E085
:101BF000EBE5F0E080818F778C93AAE5B0E0EAE531
:101C0000F0E0808180688C93CF91DF910895DF931D
:101C1000CF93CDB7DEB7ABE5B0E0EBE5F0E0808188
:101C200080688C93CF91DF910895DF93CF93CDB7E8
:101C3000DEB7ABE5B0E0EBE5F0E080818F778C9329
:101C4000CF91DF910895DF93CF9300D0CDB7DEB76A
:101C50009A83898389819A8190939B0380939A03C5
:101C60000F900F90CF91DF9108951F920F920FB6B2
:101C70000F9211242F933F934F935F936F937F9312
:101C80008F939F93AF93BF93EF93FF93DF93CF9384
:101C9000CDB7DEB7E0919A03F0919B030995CF9100
:101CA000DF91FF91EF91BF91AF919F918F917F91C4
:101CB0006F915F914F913F912F910F900FBE0F90B9
:101CC0001F901895DF93CF93CDB7DEB7A4E5B0E0B2
:101CD000E4E5F0E080818F7B8C93ABE5B0E0EBE551
:101CE000F0E080818F7D8C93AAE5B0E0EAE5F0E03A
:101CF000808180628C93CF91DF910895DF93CF93A1
:101D0000CDB7DEB7ABE5B0E0EBE5F0E08081806217
:101D10008C93CF91DF910895DF93CF93CDB7DEB74A
:101D2000ABE5B0E0EBE5F0E080818F7D8C93CF9167
:101D3000DF910895DF93CF9300D0CDB7DEB79A83BC
:101D4000898389819A8190939D0380939C030F904E
:101D50000F90CF91DF9108951F920F920FB60F92BF
:101D600011242F933F934F935F936F937F938F93A0
:101D70009F93AF93BF93EF93FF93DF93CF93CDB731
:101D8000DEB7E0919C03F0919D030995CF91DF911F
:101D9000FF91EF91BF91AF919F918F917F916F9143
:101DA0005F914F913F912F910F900FBE0F901F9019
:101DB0001895DF93CF93CDB7DEB7AFE5B0E0EFE591
:101DC000F0E0808180688C93CF91DF910895DF935C
:101DD000CF93CDB7DEB7AFE5B0E0EFE5F0E08081BF
:101DE0008F778C93CF91DF910895DF93CF93CDB709
:101DF000DEB783E060E041E00E94050A83E061E035
:101E000041E00E94050A83E066E041E00E94050A85
:101E100081E064E040E00E94050A81E065E040E086
:101E20000E94050A81E066E040E00E94050A81E028
:101E300067E040E00E94050A83E060E041E00E9424
:101E40000D0B83E061E041E00E940D0B83E066E052
:101E500041E00E940D0B81E064E041E00E940D0B27
:101E600081E065E041E00E940D0B81E066E041E029
:101E70000E940D0B81E067E041E00E940D0BCF91C5
:101E8000DF910895DF93CF9300D00F92CDB7DEB7E7
:101E90008FEF8B831A824FC08A81882F90E0FC01DC
:101EA000E359FC4F908183E0692F40E00E940D0BC5
:101EB00019822FC08981882F90E0FC01E759FC4FDF
:101EC000908181E0692F0E94150C8823F9F48981A3
:101ED000882F90E0FC01E759FC4F908181E0692F49
:101EE0000E94150C882399F38981282F30E08A817C
:101EF000482F50E0C901880F991F820F931F840F4C
:101F0000951FFC01E059FC4F80818B8389818F5F95
:101F100089838981843070F28A81882F90E0FC0166
:101F2000E359FC4F908183E0692F41E00E940D0B43
:101F30008A818F5F8A838A81833008F4ADCF8B8159
:101F40000F900F900F90CF91DF910895DF93CF9373
:101F5000CDB7DEB72E970FB6F894DEBF0FBECDBF5C
:101F600080E090E0A4E3B2E48B879C87AD87BE87D6
:101F70006B857C858D859E8520E030E04AE753E4C3
:101F80000E941F02DC01CB018F839887A987BA8743
:101F90006F81788589859A8520E030E040E85FE3AD
:101FA0000E94790388232CF481E090E09E838D8346
:101FB0003FC06F81788589859A8520E03FEF4FE7A4
:101FC00057E40E94190318164CF56B857C858D85A6
:101FD0009E8520E030E040E251E40E941F02DC01D7
:101FE000CB01BC01CD010E944900DC01CB019E83E5
:101FF0008D830FC089E190E09C838B838B819C81D2
:102000000197F1F79C838B838D819E8101979E833D
:102010008D838D819E81009769F714C06F817885CB
:1020200089859A850E944900DC01CB019E838D83BE
:102030008D819E819A83898389819A810197F1F7A5
:102040009A83898382E30E94651288E20E94651266
:102050008CE00E94651286E00E94651281E00E9479
:1020600065122E960FB6F894DEBF0FBECDBFCF918E
:10207000DF910895DF93CF93CDB7DEB7EB970FB61F
:10208000F894DEBF0FBECDBF8BAF80917C03813152
:1020900029F481E060E00E9477140BC080917C03FA
:1020A000813239F480E060E00E94771481E080930F
:1020B0007C0382E062E041E00E940D0B82E063E07D
:1020C00041E00E940D0B8CE08AAF80E090E0A0EA36
:1020D000B0E48DAB9EABAFABB8AF6DA97EA98FA9B5
:1020E00098AD20E030E04AE753E40E941F02DC0193
:1020F000CB0189AB9AABABABBCAB69A97AA98BA975
:102100009CA920E030E040E85FE30E947903882347
:102110002CF481E090E098AB8FA73FC069A97AA921
:102120008BA99CA920E03FEF4FE757E40E941903D9
:1021300018164CF56DA97EA98FA998AD20E030E066
:1021400040E251E40E941F02DC01CB01BC01CD0141
:102150000E944900DC01CB0198AB8FA70FC089E139
:1021600090E09EA78DA78DA59EA50197F1F79EA74C
:102170008DA78FA598A9019798AB8FA78FA598A930
:10218000009769F714C069A97AA98BA99CA90E9434
:102190004900DC01CB0198AB8FA78FA598A99CA71C
:1021A0008BA78BA59CA50197F1F79CA78BA78BAD5F
:1021B000982F907F8AAD892B89AF82E069AD0E940C
:1021C000DC0C82E063E040E00E940D0B80E090E0D8
:1021D000A0EAB0E48FA398A7A9A7BAA76FA178A592
:1021E00089A59AA520E030E04AE753E40E941F0247
:1021F000DC01CB018BA39CA3ADA3BEA36BA17CA1EF
:102200008DA19EA120E030E040E85FE30E947903C9
:1022100088232CF481E090E09AA389A33FC06BA1AE
:102220007CA18DA19EA120E03FEF4FE757E40E94E3
:10223000190318164CF56FA178A589A59AA520E079
:1022400030E040E251E40E941F02DC01CB01BC01FE
:10225000CD010E944900DC01CB019AA389A30FC0E4
:1022600089E190E098A38F8F8F8D98A10197F1F766
:1022700098A38F8F89A19AA101979AA389A389A175
:102280009AA1009769F714C06BA17CA18DA19EA1B2
:102290000E944900DC01CB019AA389A389A19AA1DC
:1022A0009E8F8D8F8D8D9E8D0197F1F79E8F8D8FD7
:1022B00082E063E041E00E940D0B80E090E0A0EA44
:1022C000B0E4898F9A8FAB8FBC8F698D7A8D8B8D9F
:1022D0009C8D20E030E04AE753E40E941F02DC01BD
:1022E000CB018D8B9E8BAF8BB88F6D897E898F894B
:1022F000988D20E030E040E85FE30E947903882376
:102300002CF481E090E09C8B8B8B3FC06D897E89A3
:102310008F89988D20E03FEF4FE757E40E94190323
:1023200018164CF5698D7A8D8B8D9C8D20E030E0F0
:1023300040E251E40E941F02DC01CB01BC01CD014F
:102340000E944900DC01CB019C8B8B8B0FC089E183
:1023500090E09A8B898B89899A890197F1F79A8BFA
:10236000898B8B899C8901979C8B8B8B8B899C8912
:10237000009769F714C06D897E898F89988D0E94B6
:102380004900DC01CB019C8B8B8B8B899C89988BC2
:102390008F878F8598890197F1F7988B8F878BAD01
:1023A000882F90E082959295907F9827807F98273C
:1023B000982F8AAD892B89AF82E069AD0E94DC0C31
:1023C00082E063E040E00E940D0B80E090E0A0EA34
:1023D000B0E48B879C87AD87BE876B857C858D85B8
:1023E0009E8520E030E04AE753E40E941F02DC01B2
:1023F000CB018F839887A987BA876F817885898574
:102400009A8520E030E040E85FE30E94790388236A
:102410002CF481E090E09E838D833FC06F817885AE
:1024200089859A8520E03FEF4FE757E40E94190322
:1024300018164CF56B857C858D859E8520E030E0F7
:1024400040E251E40E941F02DC01CB01BC01CD013E
:102450000E944900DC01CB019E838D830FC089E17E
:1024600090E09C838B838B819C810197F1F79C8307
:102470008B838D819E8101979E838D838D819E812B
:10248000009769F714C06F81788589859A850E94C5
:102490004900DC01CB019E838D838D819E819A83CF
:1024A000898389819A810197F1F79A838983809141
:1024B0007C038F5F80937C03EB960FB6F894DEBFAE
:1024C0000FBECDBFCF91DF910895DF93CF93CDB7EE
:1024D000DEB7EB970FB6F894DEBF0FBECDBF8BAF64
:1024E00082E062E040E00E940D0B82E063E041E0A8
:1024F0000E940D0B88E08AAF80E090E0A0EAB0E493
:102500008DAB9EABAFABB8AF6DA97EA98FA998ADCF
:1025100020E030E04AE753E40E941F02DC01CB01D7
:1025200089AB9AABABABBCAB69A97AA98BA99CA9C7
:1025300020E030E040E85FE30E94790388232CF438
:1025400081E090E098AB8FA73FC069A97AA98BA9D9
:102550009CA920E03FEF4FE757E40E9419031816AB
:102560004CF56DA97EA98FA998AD20E030E040E23E
:1025700051E40E941F02DC01CB01BC01CD010E948D
:102580004900DC01CB0198AB8FA70FC089E190E037
:102590009EA78DA78DA59EA50197F1F79EA78DA754
:1025A0008FA598A9019798AB8FA78FA598A9009799
:1025B00069F714C069A97AA98BA99CA90E9449004E
:1025C000DC01CB0198AB8FA78FA598A99CA78BA7FF
:1025D0008BA59CA50197F1F79CA78BA78BAD982F96
:1025E000907F8AAD892B89AF82E069AD0E94DC0CB7
:1025F00082E063E040E00E940D0B80E090E0A0EA02
:10260000B0E48FA398A7A9A7BAA76FA178A589A5B9
:102610009AA520E030E04AE753E40E941F02DC0163
:10262000CB018BA39CA3ADA3BEA36BA17CA18DA169
:102630009EA120E030E040E85FE30E947903882318
:102640002CF481E090E09AA389A33FC06BA17CA108
:102650008DA19EA120E03FEF4FE757E40E941903B0
:1026600018164CF56FA178A589A59AA520E030E051
:1026700040E251E40E941F02DC01CB01BC01CD010C
:102680000E944900DC01CB019AA389A30FC089E114
:1026900090E098A38F8F8F8D98A10197F1F798A361
:1026A0008F8F89A19AA101979AA389A389A19AA141
:1026B000009769F714C06BA17CA18DA19EA10E9417
:1026C0004900DC01CB019AA389A389A19AA19E8F1D
:1026D0008D8F8D8D9E8D0197F1F79E8F8D8F82E06E
:1026E00063E041E00E940D0B80E090E0A0EAB0E4DE
:1026F000898F9A8FAB8FBC8F698D7A8D8B8D9C8DD6
:1027000020E030E04AE753E40E941F02DC01CB01E5
:102710008D8B9E8BAF8BB88F6D897E898F89988DBD
:1027200020E030E040E85FE30E94790388232CF446
:1027300081E090E09C8B8B8B3FC06D897E898F8977
:10274000988D20E03FEF4FE757E40E9419031816D9
:102750004CF5698D7A8D8B8D9C8D20E030E040E2C8
:1027600051E40E941F02DC01CB01BC01CD010E949B
:102770004900DC01CB019C8B8B8B0FC089E190E081
:102780009A8B898B89899A890197F1F79A8B898B22
:102790008B899C8901979C8B8B8B8B899C8900975B
:1027A00069F714C06D897E898F89988D0E944900D0
:1027B000DC01CB019C8B8B8B8B899C89988B8F87C1
:1027C0008F8598890197F1F7988B8F878BAD882F2C
:1027D00090E082959295907F9827807F9827982FF8
:1027E0008AAD892B89AF82E069AD0E94DC0C82E062
:1027F00063E040E00E940D0B80E090E0A0EAB0E4CE
:102800008B879C87AD87BE876B857C858D859E85F4
:1028100020E030E04AE753E40E941F02DC01CB01D4
:102820008F839887A987BA876F81788589859A85EC
:1028300020E030E040E85FE30E94790388232CF435
:1028400081E090E09E838D833FC06F81788589858C
:102850009A8520E03FEF4FE757E40E9419031816CE
:102860004CF56B857C858D859E8520E030E040E2CF
:1028700051E40E941F02DC01CB01BC01CD010E948A
:102880004900DC01CB019E838D830FC089E190E07C
:102890009C838B838B819C810197F1F79C838B8335
:1028A0008D819E8101979E838D838D819E8100976E
:1028B00069F714C06F81788589859A850E944900DF
:1028C000DC01CB019E838D838D819E819A838983D8
:1028D00089819A810197F1F79A838983EB960FB6E4
:1028E000F894DEBF0FBECDBFCF91DF910895DF9387
:1028F000CF9300D0CDB7DEB789836A8389818823DF
:1029000059F48A81803140F48A8180580E9465128E
:102910008A8180937C030EC08981813059F48A8139
:10292000803140F48A8180540E9465128A818F5ED2
:1029300080937C030F900F90CF91DF910895DF93E8
:10294000CF9300D00F92CDB7DEB79B838A831982D5
:102950000EC08981282F30E08A819B81FC01E20F23
:10296000F31F80810E943A1089818F5F898389815A
:10297000282F30E08A819B81FC01E20FF31F8081C8
:10298000882339F70F900F900F90CF91DF91089522
:10299000DF93CF93CDB7DEB781E00E94651281E06F
:1029A00080937C03CF91DF910895DF93CF93CDB7D0
:1029B000DEB728970FB6F894DEBF0FBECDBF9D835C
:1029C0008C836E834F8328878E81883090F58F812A
:1029D000823078F58885803160F58E81882F90E08F
:1029E000880F991F880F991F880F991F8B838B81E0
:1029F00080640E9465121A8219820FC029813A816F
:102A00008C819D81FC01E20FF31F80810E943A10AE
:102A100089819A8101969A83898389819A818830F4
:102A2000910564F38F8168850E9477148E810E94DE
:102A30003A1028960FB6F894DEBF0FBECDBFCF91E7
:102A4000DF910895EF92FF920F931F93DF93CF933F
:102A5000CDB7DEB7A0970FB6F894DEBF0FBECDBFDF
:102A60006D8F7E8F8F8F98A38D8D9E8DAF8DB8A12A
:102A700089839A83AB83BC8389819A81AB81BC8132
:102A8000BB2394F48DE20E943A1089819A81AB8134
:102A9000BC81B095A095909581959F4FAF4FBF4F4A
:102AA00089839A83AB83BC8389819A81AB81BC8102
:102AB000BB2304F189819A81AB81BC818A30910565
:102AC000A105B105BCF489819A81AB81BC812AE062
:102AD00030E040E050E0BC01CD010E945D32DC01FD
:102AE000CB01898F9A8FAB8FBC8F898D805D0E94BF
:102AF0003A10FBC389819A81AB81BC818A309105F0
:102B0000A105B1050CF459C089819A81AB81BC81C2
:102B100084369105A105B1050CF04FC089819A81D9
:102B2000AB81BC812AE030E040E050E0BC01CD0147
:102B30000E945D32DC01CB01898F9A8FAB8FBC8FF5
:102B400089819A81AB81BC8124E630E040E050E08D
:102B5000BC01CD010E945D32DC01CB017C018D0105
:102B600089819A81AB81BC812AE030E040E050E06D
:102B7000BC01CD010E945D32DC01CB01A8019701AF
:102B8000281B390B4A0B5B0BDA01C9012AE030E044
:102B900040E050E0BC01CD010E945D32DA01C90184
:102BA0008D8B9E8BAF8BB88F8D89805D0E943A1084
:102BB000898D805D0E943A1098C389819A81AB818A
:102BC000BC8184369105A105B1050CF486C08981CC
:102BD0009A81AB81BC81883E33E0930730E0A30744
:102BE00030E0B3070CF079C089819A81AB81BC8158
:102BF0002AE030E040E050E0BC01CD010E945D32AF
:102C0000DC01CB01898F9A8FAB8FBC8F89819A8130
:102C1000AB81BC8124E630E040E050E0BC01CD0156
:102C20000E945D32DC01CB017C018D0189819A819A
:102C3000AB81BC812AE030E040E050E0BC01CD0136
:102C40000E945D32DC01CB01A8019701281B390BE2
:102C50004A0B5B0BDA01C9012AE030E040E050E0AA
:102C6000BC01CD010E945D32DA01C9018D8B9E8BC2
:102C7000AF8BB88F89819A81AB81BC8124E630E02B
:102C800040E050E0BC01CD010E945D32DC01CB018F
:102C90009C01AD0189819A81AB81BC81821B930B20
:102CA000A40BB50B24E630E040E050E0BC01CD01C0
:102CB0000E945D32DA01C901898B9A8BAB8BBC8B88
:102CC0008989805D0E943A108D89805D0E943A104A
:102CD000898D805D0E943A1008C389819A81AB81F9
:102CE000BC81883E33E0930730E0A30730E0B307B0
:102CF0000CF4BEC089819A81AB81BC81803147E2EE
:102D0000940740E0A40740E0B4070CF0B1C089810B
:102D10009A81AB81BC812AE030E040E050E0BC0108
:102D2000CD010E945D32DC01CB01898F9A8FAB8F80
:102D3000BC8F89819A81AB81BC8124E630E040E080
:102D400050E0BC01CD010E945D32DC01CB017C0171
:102D50008D0189819A81AB81BC812AE030E040E01D
:102D600050E0BC01CD010E945D32DC01CB01A80125
:102D70009701281B390B4A0B5B0BDA01C9012AE0CA
:102D800030E040E050E0BC01CD010E945D32DA014C
:102D9000C9018D8B9E8BAF8BB88F89819A81AB8156
:102DA000BC8128EE33E040E050E0BC01CD010E9440
:102DB0005D32DC01CB017C018D0189819A81AB817F
:102DC000BC8124E630E040E050E0BC01CD010E942F
:102DD0005D32DC01CB01A8019701281B390B4A0B9E
:102DE0005B0BDA01C90124E630E040E050E0BC01B1
:102DF000CD010E945D32DA01C901898B9A8BAB8BC0
:102E0000BC8B89819A81AB81BC8128EE33E040E0A4
:102E100050E0BC01CD010E945D32DC01CB019C0180
:102E2000AD0189819A81AB81BC81821B930BA40B7C
:102E3000B50B28EE33E040E050E0BC01CD010E942C
:102E40005D32DA01C9018D879E87AF87B88B8D858A
:102E5000805D0E943A108989805D0E943A108D89B8
:102E6000805D0E943A10898D805D0E943A103DC2BB
:102E700089819A81AB81BC81803137E2930730E050
:102E8000A30730E0B3070CF4F6C089819A81AB81C7
:102E9000BC81803A46E8940741E0A40740E0B407CB
:102EA0000CF0E9C089819A81AB81BC812AE030E0D5
:102EB00040E050E0BC01CD010E945D32DC01CB015D
:102EC000898F9A8FAB8FBC8F89819A81AB81BC81AE
:102ED00024E630E040E050E0BC01CD010E945D32CC
:102EE000DC01CB017C018D0189819A81AB81BC81A0
:102EF0002AE030E040E050E0BC01CD010E945D32AC
:102F0000DC01CB01A8019701281B390B4A0B5B0B95
:102F1000DA01C9012AE030E040E050E0BC01CD0117
:102F20000E945D32DA01C9018D8B9E8BAF8BB88F09
:102F300089819A81AB81BC8128EE33E040E050E08A
:102F4000BC01CD010E945D32DC01CB017C018D0111
:102F500089819A81AB81BC8124E630E040E050E079
:102F6000BC01CD010E945D32DC01CB01A8019701BB
:102F7000281B390B4A0B5B0BDA01C90124E630E050
:102F800040E050E0BC01CD010E945D32DA01C90190
:102F9000898B9A8BAB8BBC8B89819A81AB81BC81ED
:102FA00020E137E240E050E0BC01CD010E945D32FB
:102FB000DC01CB017C018D0189819A81AB81BC81CF
:102FC00028EE33E040E050E0BC01CD010E945D32CC
:102FD000DC01CB01A8019701281B390B4A0B5B0BC5
:102FE000DA01C90128EE33E040E050E0BC01CD0138
:102FF0000E945D32DA01C9018D879E87AF87B88B49
:1030000089819A81AB81BC8120E137E240E050E0C8
:10301000BC01CD010E945D32DC01CB019C01AD0100
:1030200089819A81AB81BC81821B930BA40BB50B68
:1030300020E137E240E050E0BC01CD010E945D326A
:10304000DA01C90189879A87AB87BC878985805D4A
:103050000E943A108D85805D0E943A108989805DBA
:103060000E943A108D89805D0E943A10898D805DA2
:103070000E943A103AC189819A81AB81BC81803A21
:1030800036E8930731E0A30730E0B3070CF42DC115
:1030900089819A81AB81BC81803442E494074FE0FE
:1030A000A40740E0B4070CF020C189819A81AB816C
:1030B000BC812AE030E040E050E0BC01CD010E943C
:1030C0005D32DC01CB01898F9A8FAB8FBC8F8981F8
:1030D0009A81AB81BC8124E630E040E050E0BC0145
:1030E000CD010E945D32DC01CB017C018D01898123
:1030F0009A81AB81BC812AE030E040E050E0BC0125
:10310000CD010E945D32DC01CB01A8019701281B93
:10311000390B4A0B5B0BDA01C9012AE030E040E0D1
:1031200050E0BC01CD010E945D32DA01C9018D8BF6
:103130009E8BAF8BB88F89819A81AB81BC8128EE41
:1031400033E040E050E0BC01CD010E945D32DC0183
:10315000CB017C018D0189819A81AB81BC8124E600
:1031600030E040E050E0BC01CD010E945D32DC0166
:10317000CB01A8019701281B390B4A0B5B0BDA0125
:10318000C90124E630E040E050E0BC01CD010E94DE
:103190005D32DA01C901898B9A8BAB8BBC8B89813B
:1031A0009A81AB81BC8120E137E240E050E0BC0174
:1031B000CD010E945D32DC01CB017C018D01898152
:1031C0009A81AB81BC8128EE33E040E050E0BC0145
:1031D000CD010E945D32DC01CB01A8019701281BC3
:1031E000390B4A0B5B0BDA01C90128EE33E040E0F2
:1031F00050E0BC01CD010E945D32DA01C9018D872A
:103200009E87AF87B88B89819A81AB81BC8120EA88
:1032100036E841E050E0BC01CD010E945D32DC01A6
:10322000CB017C018D0189819A81AB81BC8120E138
:1032300037E240E050E0BC01CD010E945D32DC018C
:10324000CB01A8019701281B390B4A0B5B0BDA0154
:10325000C90120E137E240E050E0BC01CD010E940D
:103260005D32DA01C90189879A87AB87BC8789817A
:103270009A81AB81BC8120EA36E841E050E0BC0194
:10328000CD010E945D32DC01CB019C01AD01898141
:103290009A81AB81BC81821B930BA40BB50B20EAF6
:1032A00036E841E050E0BC01CD010E945D32DA0118
:1032B000C9018D839E83AF83B8878D81805D0E9415
:1032C0003A108985805D0E943A108D85805D0E944C
:1032D0003A108989805D0E943A108D89805D0E9434
:1032E0003A10898D805D0E943A10A0960FB6F8942E
:1032F000DEBF0FBECDBFCF91DF911F910F91FF9029
:10330000EF900895DF93CF93CDB7DEB70E945B1E99
:103310000E94911E80ED0E94B11E87E00E94ED1E6A
:1033200080E00E94ED1E0E942A1FCF91DF91089538
:10333000DF93CF9300D0CDB7DEB79A8389830E9405
:10334000911E80ED0E94B11E80E00E94ED1EE98179
:10335000FA8180819AE0692F0E943D32282F2295C0
:10336000207FE981FA8180819AE0692F0E943D32B5
:10337000892F820F0E94ED1EE981FA8181819AE0F6
:10338000692F0E943D32282F2295207FE981FA8102
:1033900081819AE0692F0E943D32892F820F0E941D
:1033A000ED1EE981FA8182819AE0692F0E943D3207
:1033B000282F2295207FE981FA8182819AE0692F66
:1033C0000E943D32892F820F0E94ED1EE981FA8111
:1033D00083819AE0692F0E943D32282F2295207F19
:1033E000E981FA8183819AE0692F0E943D32892F19
:1033F000820F0E94ED1EE981FA8184819AE0692F93
:103400000E943D32282F2295207FE981FA81848114
:103410009AE0692F0E943D32892F820F0E94ED1E93
:10342000E981FA8185819AE0692F0E943D32282F37
:103430002295207FE981FA8185819AE0692F0E9497
:103440003D32892F820F0E94ED1EE981FA8186812B
:103450009AE0692F0E943D32282F2295207FE98132
:10346000FA8186819AE0692F0E943D32892F820F6E
:103470000E94ED1E0E942A1F0F900F90CF91DF91A6
:103480000895DF93CF9300D0CDB7DEB79A838983B9
:103490000E94911E80ED0E94B11E80E00E94ED1EF0
:1034A0000E942A1F0E94911E80ED0E94CF1E0E9442
:1034B000041FE981FA8180830E94041FE981FA8157
:1034C00081830E94041FE981FA8182830E94041F84
:1034D000E981FA8183830E94041FE981FA81848350
:1034E0000E94041FE981FA8185830E94171FE981E8
:1034F000FA8186830E942A1FE981FA818081829560
:103500008F70882F90E090709C01220F331FC901AB
:10351000880F991F880F991F820F931F982FE98199
:10352000FA8180818F70890FE981FA818083E98136
:10353000FA81818182958F70882F90E090709C0134
:10354000220F331FC901880F991F880F991F820FFF
:10355000931F982FE981FA8181818F70890FE9810A
:10356000FA818183E981FA81828182958F70882F27
:1035700090E090709C01220F331FC901880F991FA2
:10358000880F991F820F931F982FE981FA818281FA
:103590008F70890FE981FA818283E981FA818381C1
:1035A00082958F70882F90E090709C01220F331FBE
:1035B000C901880F991F880F991F820F931F982F99
:1035C000E981FA8183818F70890FE981FA81838390
:1035D000E981FA81848182958F70882F90E09070C4
:1035E0009C01220F331FC901880F991F880F991F53
:1035F000820F931F982FE981FA8184818F70890F40
:10360000E981FA818483E981FA81858182958F70CD
:10361000882F90E090709C01220F331FC901880F02
:10362000991F880F991F820F931F982FE981FA81A4
:1036300085818F70890FE981FA818583E981FA811B
:10364000868182958F70882F90E090709C01220F68
:10365000331FC901880F991F880F991F820F931F6D
:10366000982FE981FA8186818F70890FE981FA812B
:1036700086830F900F90CF91DF910895DF93CF93C2
:10368000CDB7DEB7A3E5B0E0E3E5F0E0808180648C
:103690008C93A3E5B0E0E3E5F0E0808188608C9353
:1036A000A3E5B0E0E3E5F0E080818F7E8C93A3E5B5
:1036B000B0E0E3E5F0E0808180628C93A3E5B0E0C8
:1036C000E3E5F0E0808181608C93A3E5B0E0E3E581
:1036D000F0E080818D7F8C93A3E5B0E0E3E5F0E03E
:1036E000808184608C93CF91DF910895DF93CF9395
:1036F000CDB7DEB7A9E5B0E0E9E5F0E08081816013
:103700008C93CF91DF910895DF93CF93CDB7DEB740
:10371000A9E5B0E0E9E5F0E080818E7F8C93CF9160
:10372000DF910895DF93CF93CDB7DEB7A9E5B0E081
:10373000E9E5F0E0808182608C93CF91DF9108957C
:10374000DF93CF93CDB7DEB7A9E5B0E0E9E5F0E0D0
:1037500080818D7F8C93CF91DF910895DF93CF93FC
:103760000F92CDB7DEB78983E2E5F0E089818083EF
:103770000F90CF91DF910895DF93CF930F92CDB744
:10378000DEB78983ECE5F0E0898180830F90CF91EB
:10379000DF910895DF93CF9300D0CDB7DEB79A8342
:1037A000898389819A8190939F0380939E030F90D0
:1037B0000F90CF91DF9108951F920F920FB60F9245
:1037C00011242F933F934F935F936F937F938F9326
:1037D0009F93AF93BF93EF93FF93DF93CF93CDB7B7
:1037E000DEB7E0919E03F0919F030995CF91DF91A1
:1037F000FF91EF91BF91AF919F918F917F916F91C9
:103800005F914F913F912F910F900FBE0F901F909E
:103810001895DF93CF9300D0CDB7DEB79A83898315
:1038200089819A819093A1038093A0030F900F90B8
:10383000CF91DF9108951F920F920FB60F9211242E
:103840002F933F934F935F936F937F938F939F93A8
:10385000AF93BF93EF93FF93DF93CF93CDB7DEB7D3
:10386000E091A003F091A1030995CF91DF91FF9121
:10387000EF91BF91AF919F918F917F916F915F91E8
:103880004F913F912F910F900FBE0F901F90189561
:10389000DF93CF93CDB7DEB7AFE4B0E0EFE4F0E075
:1038A00080818E7F8C93AFE4B0E0EFE4F0E0808124
:1038B00082608C93AEE4B0E0EEE4F0E0808188605A
:1038C0008C93AEE4B0E0EEE4F0E0808180618C9314
:1038D000AFE4B0E0EFE4F0E080818F7B8C93AFE465
:1038E000B0E0EFE4F0E080818F7E8C93AFE4B0E055
:1038F000EFE4F0E0808180688C93AFE4B0E0EFE427
:10390000F0E0808180628C93AEE4B0E0EEE4F0E021
:10391000808181608C93AEE4B0E0EEE4F0E08081E1
:1039200082608C93AEE4B0E0EEE4F0E080818B7FC7
:103930008C93CF91DF910895DF93CF93CDB7DEB70E
:10394000A9E5B0E0E9E5F0E0808184608C93CF9157
:10395000DF910895DF93CF93CDB7DEB7A9E5B0E04F
:10396000E9E5F0E080818B7F8C93CF91DF91089522
:10397000DF93CF93CDB7DEB7A9E5B0E0E9E5F0E09E
:10398000808188608C93CF91DF910895DF93CF93EE
:10399000CDB7DEB7A9E5B0E0E9E5F0E08081877F4B
:1039A0008C93CF91DF910895DF93CF93CDB7DEB79E
:1039B000A9E5B0E0E9E5F0E0808180618C93CF91EA
:1039C000DF910895DF93CF93CDB7DEB7A9E5B0E0DF
:1039D000E9E5F0E080818F7E8C93CF91DF910895AF
:1039E000DF93CF93CDB7DEB7A9E5B0E0E9E5F0E02E
:1039F000808180628C93CF91DF910895DF93CF9384
:103A0000CDB7DEB7A9E5B0E0E9E5F0E080818F7DD4
:103A10008C93CF91DF910895DF93CF9300D0CDB7F2
:103A2000DEB79A838983ECE4F0E089819A819183FF
:103A300080830F900F90CF91DF910895DF93CF9304
:103A400000D0CDB7DEB79A838983EAE4F0E08981BC
:103A50009A81918380830F900F90CF91DF91089589
:103A6000DF93CF9300D0CDB7DEB79A838983E8E4A4
:103A7000F0E089819A81918380830F900F90CF919C
:103A8000DF910895DF93CF9300D0CDB7DEB79A834F
:103A90008983E6E4F0E089819A81918380830F90A5
:103AA0000F90CF91DF910895DF93CF93CDB7DEB71D
:103AB000E6E4F0E080819181CF91DF910895DF937A
:103AC000CF9300D0CDB7DEB79A83898389819A815D
:103AD0009093A3038093A2030F900F90CF91DF9157
:103AE00008951F920F920FB60F9211242F933F93B8
:103AF0004F935F936F937F938F939F93AF93BF93F6
:103B0000EF93FF93DF93CF93CDB7DEB7E091A2039E
:103B1000F091A3030995CF91DF91FF91EF91BF91B0
:103B2000AF919F918F917F916F915F914F913F9155
:103B30002F910F900FBE0F901F901895DF93CF938A
:103B400000D0CDB7DEB79A83898389819A8190931B
:103B5000A5038093A4030F900F90CF91DF91089558
:103B60001F920F920FB60F9211242F933F934F93F2
:103B70005F936F937F938F939F93AF93BF93EF93D5
:103B8000FF93DF93CF93CDB7DEB7E091A403F0911D
:103B9000A5030995CF91DF91FF91EF91BF91AF916F
:103BA0009F918F917F916F915F914F913F912F9155
:103BB0000F900FBE0F901F901895DF93CF9300D0FA
:103BC000CDB7DEB79A83898389819A819093A703C1
:103BD0008093A6030F900F90CF91DF9108951F92CD
:103BE0000F920FB60F9211242F933F934F935F9331
:103BF0006F937F938F939F93AF93BF93EF93FF93B5
:103C0000DF93CF93CDB7DEB7E091A603F091A70382
:103C10000995CF91DF91FF91EF91BF91AF919F9166
:103C20008F917F916F915F914F913F912F910F9065
:103C30000FBE0F901F901895DF93CF9300D0CDB794
:103C4000DEB79A83898389819A819093A9038093AF
:103C5000A8030F900F90CF91DF9108951F920F92BC
:103C60000FB60F9211242F933F934F935F936F934F
:103C70007F938F939F93AF93BF93EF93FF93DF93C4
:103C8000CF93CDB7DEB7E091A803F091A9030995D2
:103C9000CF91DF91FF91EF91BF91AF919F918F9164
:103CA0007F916F915F914F913F912F910F900FBE38
:103CB0000F901F901895DF93CF93CDB7DEB7E4E157
:103CC000F0E08CE08083A5E1B0E0E5E1F0E0808108
:103CD0008E7F8C93A5E1B0E0E5E1F0E080818D7FFF
:103CE0008C93A6E5B0E0E6E5F0E0808184608C93FB
:103CF000CF91DF910895DF93CF930F92CDB7DEB7C9
:103D00008983E2E2F0E08981880F8083A6E5B0E054
:103D1000E6E5F0E0808184608C930F90CF91DF9195
:103D20000895DF93CF93CDB7DEB7E6E5F0E084EA00
:103D30008083E6E5F0E080818823DCF7CF91DF9196
:103D40000895DF93CF93CDB7DEB7E6E5F0E084EAE0
:103D50008083E6E5F0E080818823DCF7CF91DF9176
:103D60000895DF93CF930F92CDB7DEB78983E3E257
:103D7000F0E089818083A3E2B0E0E3E2F0E08081BB
:103D80008E7F8C93E6E5F0E084E88083E6E5F0E062
:103D900080818823DCF70F90CF91DF910895DF9326
:103DA000CF930F92CDB7DEB78983E3E2F0E089814C
:103DB0008083A3E2B0E0E3E2F0E0808181608C9355
:103DC000E6E5F0E084E88083E6E5F0E080818823A2
:103DD000DCF70F90CF91DF910895DF93CF930F928F
:103DE000CDB7DEB78983E3E2F0E089818083E6E541
:103DF000F0E084E88083E6E5F0E080818823DCF76A
:103E00000F90CF91DF910895DF93CF93CDB7DEB7B9
:103E1000E6E5F0E084EC8083E6E5F0E0808188234D
:103E2000DCF7E3E2F0E08081CF91DF910895DF934A
:103E3000CF93CDB7DEB7E6E5F0E084E88083E6E532
:103E4000F0E080818823DCF7E3E2F0E08081CF912D
:103E5000DF910895DF93CF93CDB7DEB7E6E5F0E0CD
:103E600084E98083CF91DF9108950F931F93DF93AF
:103E7000CF93CDB7DEB7C050D1400FB6F894DEBFB8
:103E80000FBECDBF82E062E041E00E94050A82E001
:103E900063E041E00E94050A82E064E041E00E94A4
:103EA000050A82E065E041E00E94050A82E066E0E2
:103EB00041E00E94050A82E067E041E00E94050AB5
:103EC00081E060E041E00E94050A81E061E041E0BC
:103ED0000E94050A81E063E041E00E94050A83E058
:103EE00065E041E00E94050A80E060E040E00E9459
:103EF000050A80E061E040E00E94050A83E064E09A
:103F000041E00E94050A80E067E041E00E94050A66
:103F100083E067E041E00E94050A80E066E041E05E
:103F20000E94050A80E062E040E00E94050A80E00D
:103F300063E040E00E94050A80E064E041E00E9406
:103F4000050A80E065E041E00E94050A81E062E048
:103F500041E00E94050A83E062E040E00E94050A19
:103F600083E062E041E00E940D0B83E063E040E00B
:103F70000E94050A83E063E041E00E940D0BFE0110
:103F8000EE53FF4F1082FE01E254FF4F8EEF92E19D
:103F9000A0E0B0E080839183A283B383FE01E65466
:103FA000FF4F84EF91E0A0E0B0E080839183A28393
:103FB000B383FE01E754FF4F1082FE01E854FF4F28
:103FC00081E08083CE0186529F4FCE50DF4F998390
:103FD0008883C25FD0408DE893E0CC50DF4F998357
:103FE0008883C45FD04098E0CA50DF4F9883C65F93
:103FF000D040CC50DF4FE881F981C45FD0400080D1
:10400000CC50DF4F88819981C45FD0400196CC505D
:10401000DF4F99838883C45FD040CE50DF4FE88163
:10402000F981C25FD0400082CE50DF4F88819981F4
:10403000C25FD0400196CE50DF4F99838883C25F24
:10404000D040CA50DF4F9881C65FD0409150CA50CF
:10405000DF4F9883C65FD040CA50DF4FE881C65F0C
:10406000D040EE2331F6CE018E519F4FC950DF4F25
:1040700099838883C75FD04085E893E0C750DF4FBE
:1040800099838883C95FD04098E0C550DF4F9883FB
:10409000CB5FD040C750DF4FE881F981C95FD04086
:1040A0000080C750DF4F88819981C95FD040019659
:1040B000C750DF4F99838883C95FD040C950DF4F15
:1040C000E881F981C75FD0400082C950DF4F888105
:1040D0009981C75FD0400196C950DF4F998388838B
:1040E000C75FD040C550DF4F9881CB5FD040915023
:1040F000C550DF4F9883CB5FD040C550DF4FE8817C
:10410000CB5FD040EE2331F6CE0186519F4FC45095
:10411000DF4F99838883CC5FD0408DE793E0C25016
:10412000DF4F99838883CE5FD04098E0C050DF4F47
:104130009883C050D140C250DF4FE881F981CE5FF3
:10414000D0400080C250DF4F88819981CE5FD0403F
:104150000196C250DF4F99838883CE5FD040C45010
:10416000DF4FE881F981CC5FD0400082C450DF4F3F
:1041700088819981CC5FD0400196C450DF4F9983EC
:104180008883CC5FD040C050DF4F9881C050D14071
:104190009150C050DF4F9883C050D140C050DF4F86
:1041A000E881C050D140EE2331F68EE59DE20E94B9
:1041B000C60982E092E30E94A50D80E192E30E948D
:1041C000230E0E946B060E94D90E0E94F50E0E94DB
:1041D000A60F0E94481C0E943E1B80E00E94BC1B50
:1041E00088E893E10E94421D0E94660D0E94E40D42
:1041F0000E94890D0E94070E0E9482198091C103BE
:104200008130B9F480E061E00E94150C813031F416
:1042100080E066E041E00E940D0B0BC080E061E0B1
:104220000E94150C882329F480E066E040E00E949B
:104230000D0B8091C203882309F0D1C00E94C814DD
:1042400080E061E00E94771480E690E00E949F1475
:1042500081E061E00E9477148FE690E00E949F1455
:10426000FE01E654FF4F60817181828193810E943B
:10427000FD03DC01CB01FE01ED54FF4F80839183F0
:10428000A283B3838E0101551F4FFE01ED54FF4FF2
:10429000608171818281938120E030E04AE755E4BA
:1042A0000E941F02DC01CB01F80180839183A2836D
:1042B000B383FE01E155FF4F60817181828193815B
:1042C00020E030E040E85FE30E947903882344F473
:1042D000FE01E355FF4F81E090E09183808364C04D
:1042E000FE01E155FF4F608171818281938120E061
:1042F0003FEF4FE757E40E94190318160CF043C034
:10430000FE01ED54FF4F608171818281938120E035
:1043100030E040E251E40E941F02DC01CB018E013B
:1043200003551F4FBC01CD010E944900DC01CB01A8
:10433000F801918380831FC0FE01E555FF4F80E99E
:1043400091E091838083FE01E555FF4F808191814B
:104350000197F1F7FE01E555FF4F91838083DE0160
:10436000A355BF4FFE01E355FF4F80819181019717
:1043700011969C938E93FE01E355FF4F80819181AE
:104380000097D1F628C08E0103551F4FFE01E1555D
:10439000FF4F60817181828193810E944900DC011D
:1043A000CB01F80191838083DE01A755BF4FFE0149
:1043B000E355FF4F8081918111969C938E93FE016E
:1043C000E755FF4F808191810197F1F7FE01E75595
:1043D000FF4F9183808381E08093C2030FCF809150
:1043E000C203813009F0E8C081E060E041E00E9452
:1043F0000D0B81E061E040E00E940D0B80E090E059
:104400000E941E1D0E94C814CE0186529F4F60E07C
:1044100040E020E00E94D5148EE790E00E949F14B7
:1044200081E062E00E9477148DE890E00E949F1482
:10443000B4C00E94420FFE01EE53FF4F808306C0BE
:104440000E94420FFE01EE53FF4F8083FE01EE53A8
:10445000FF4F80818F3FA1F3FE01EE53FF4F80811C
:10446000853239F5FE01E754FF4F8081882309F139
:10447000FE01E754FF4F8081982F965F81E0692FFE
:104480000E94771480E20E943A10FE01E754FF4F29
:104490008081982F965F81E0692F0E947714DE015A
:1044A000A754BF4FFE01E754FF4F808181508C938A
:1044B00074C0FE01EE53FF4F8081853239F4FE0156
:1044C000E754FF4F8081882309F467C0FE01E75459
:1044D000FF4F80818430B0F5FE01EE53FF4F8081A5
:1044E0008D3381F1FE01EE53FF4F8081853251F112
:1044F000FE01E754FF4F8081A82FB0E0FE01EE538C
:10450000FF4F8081282F30E040E050E0BE016D5326
:104510007F4FCD01880F991F880F991FFB01E80F6E
:10452000F91F20833183428353838AE20E943A1029
:10453000DE01A754BF4FFE01E754FF4F80818F5F1C
:104540008C932BC0FE01E754FF4F8081843030F400
:10455000FE01EE53FF4F80818D33F9F0FE01E754E9
:10456000FF4F84E08083FE01EE53FF4F80818D3347
:10457000A1F4FE01E754FF4F84E08083FE01EE5377
:10458000FF4F80818D3349F4DE01A754BF4FFE01F8
:10459000E754FF4F80818F5F8C93FE01E754FF4FFC
:1045A0008081853008F445CFFE01E754FF4F10822B
:1045B00082E08093C20322CE8091C203823009F050
:1045C00032C5CE018D539F4F64E00E949E319B0106
:1045D000AC01FE01E254FF4F80819181A281B38141
:1045E000281739074A075B0709F0E3C081E060E05C
:1045F00040E00E940D0B81E061E041E00E940D0B64
:1046000087E791E00E941E1D0E94C814CE018651CA
:104610009F4F62E040E020E00E94D51487E990E0DF
:104620000E949F1481E060E00E94771487EA90E086
:104630000E949F14FE01E654FF4F608171818281C8
:1046400093810E94FD03DC01CB01FE01EB55FF4F7E
:1046500080839183A283B3838E010F551F4FFE0188
:10466000EB55FF4F608171818281938120E030E0C2
:104670004AE755E40E941F02DC01CB01F801808368
:104680009183A283B383FE01EF55FF4F6081718157
:104690008281938120E030E040E85FE30E9479036B
:1046A000882344F4FE01E156FF4F81E090E09183BE
:1046B000808364C0FE01EF55FF4F6081718182816C
:1046C000938120E03FEF4FE757E40E94190318164B
:1046D0000CF043C0FE01EB55FF4F60817181828178
:1046E000938120E030E040E251E40E941F02DC01AF
:1046F000CB018E0101561F4FBC01CD010E94490024
:10470000DC01CB01F801918380831FC0FE01E356D9
:10471000FF4F80E991E091838083FE01E356FF4FD4
:10472000808191810197F1F7FE01E356FF4F91835C
:104730008083DE01A156BF4FFE01E156FF4F80810D
:104740009181019711969C938E93FE01E156FF4F44
:10475000808191810097D1F628C08E0101561F4FAC
:10476000FE01EF55FF4F60817181828193810E942C
:104770004900DC01CB01F80191838083DE01A5565D
:10478000BF4FFE01E156FF4F8081918111969C93AE
:104790008E93FE01E556FF4F808191810197F1F7DD
:1047A000FE01E556FF4F9183808383E08093C2032F
:1047B00025CDFE01E854FF4F8081843008F0E0C031
:1047C0000E94C814CE018E519F4F61E040E023E06B
:1047D0000E94D51480E064E00E94771488EB90E09A
:1047E0000E949F1481E062E00E94771482EC90E0C6
:1047F0000E949F14FE01E654FF4F60817181828107
:1048000093810E94FD03DC01CB01FE01E956FF4FBD
:1048100080839183A283B3838E010D561F4FFE01C7
:10482000E956FF4F608171818281938120E030E001
:104830004AE755E40E941F02DC01CB01F8018083A6
:104840009183A283B383FE01ED56FF4F6081718196
:104850008281938120E030E040E85FE30E947903A9
:10486000882344F4FE01EF56FF4F81E090E09183EE
:10487000808364C0FE01ED56FF4F608171818281AB
:10488000938120E03FEF4FE757E40E941903181689
:104890000CF043C0FE01E956FF4F608171818281B7
:1048A000938120E030E040E251E40E941F02DC01ED
:1048B000CB018E010F561F4FBC01CD010E94490054
:1048C000DC01CB01F801918380831FC0FE01E15719
:1048D000FF4F80E991E091838083FE01E157FF4F14
:1048E000808191810197F1F7FE01E157FF4F91839C
:1048F0008083DE01AF56BF4FFE01EF56FF4F808130
:104900009181019711969C938E93FE01EF56FF4F74
:10491000808191810097D1F627C08E010F561F4FDD
:10492000FE01ED56FF4F60817181828193810E946B
:104930004900DC01CB01F80191838083DE01A3579C
:10494000BF4FFE01EF56FF4F808191818D939C9365
:10495000FE01E357FF4F808191810197F1F7FE013E
:10496000E357FF4F9183808381E08093C203DE0190
:10497000A854BF4FFE01E854FF4F80818F5F8C9396
:10498000FE01E854FF4F8081843009F037CCFE01EE
:10499000E854FF4F81E080830E94C8148FEC90E0C0
:1049A0000E949F1481E060E00E94771480EE90E006
:1049B0000E949F14FE01E654FF4F60817181828145
:1049C00093810E94FD03DC01CB01FE01E757FF4FFD
:1049D00080839183A283B3838E010B571F4FFE0107
:1049E000E757FF4F608171818281938120E030E041
:1049F0004AE755E40E941F02DC01CB01F8018083E5
:104A00009183A283B383FE01EB57FF4F60817181D5
:104A10008281938120E030E040E85FE30E947903E7
:104A2000882344F4FE01ED57FF4F81E090E091832D
:104A3000808364C0FE01EB57FF4F608171818281EA
:104A4000938120E03FEF4FE757E40E9419031816C7
:104A50000CF043C0FE01E757FF4F608171818281F6
:104A6000938120E030E040E251E40E941F02DC012B
:104A7000CB018E010D571F4FBC01CD010E94490093
:104A8000DC01CB01F801918380831FC0FE01EF5749
:104A9000FF4F80E991E091838083FE01EF57FF4F44
:104AA000808191810197F1F7FE01EF57FF4F9183CC
:104AB0008083DE01AD57BF4FFE01ED57FF4F808170
:104AC0009181019711969C938E93FE01ED57FF4FB4
:104AD000808191810097D1F627C08E010D571F4F1D
:104AE000FE01EB57FF4F60817181828193810E94AB
:104AF0004900DC01CB01F80191838083DE01A158DC
:104B0000BF4FFE01ED57FF4F808191818D939C93A4
:104B1000FE01E158FF4F808191810197F1F7FE017D
:104B2000E158FF4F918380830E94C81480E060E0C9
:104B30000E94771481EF90E00E949F1481E060E072
:104B40000E94771482E091E00E949F14FE01E654D7
:104B5000FF4F60817181828193810E94FD03DC019E
:104B6000CB01FE01E558FF4F80839183A283B3837D
:104B70008E0109581F4FFE01E558FF4F608171817A
:104B80008281938120E030E04AE755E40E941F02D1
:104B9000DC01CB01F80180839183A283B383FE0102
:104BA000E958FF4F608171818281938120E030E07C
:104BB00040E85FE30E947903882344F4FE01EB5848
:104BC000FF4F81E090E09183808364C0FE01E9584B
:104BD000FF4F608171818281938120E03FEF4FE739
:104BE00057E40E94190318160CF043C0FE01E55863
:104BF000FF4F608171818281938120E030E040E24B
:104C000051E40E941F02DC01CB018E010B581F4FA3
:104C1000BC01CD010E944900DC01CB01F801918368
:104C200080831FC0FE01ED58FF4F80E991E0918322
:104C30008083FE01ED58FF4F808191810197F1F74C
:104C4000FE01ED58FF4F91838083DE01AB58BF4FCB
:104C5000FE01EB58FF4F80819181019711969C9343
:104C60008E93FE01EB58FF4F808191810097D1F622
:104C700027C08E010B581F4FFE01E958FF4F60817E
:104C80007181828193810E944900DC01CB01F8018E
:104C900091838083DE01AF58BF4FFE01EB58FF4F79
:104CA000808191818D939C93FE01EF58FF4F80810D
:104CB00091810197F1F7FE01EF58FF4F91838083B7
:104CC0000E94C81480E061E00E94771483E191E0C3
:104CD0000E949F1481E064E00E94771482E291E0D8
:104CE0000E949F14FE01E654FF4F60817181828112
:104CF00093810E94FD03DC01CB01FE01E359FF4FCC
:104D000080839183A283B3838E0107591F4FFE01D5
:104D1000E359FF4F608171818281938120E030E00F
:104D20004AE755E40E941F02DC01CB01F8018083B1
:104D30009183A283B383FE01E759FF4F60817181A4
:104D40008281938120E030E040E85FE30E947903B4
:104D5000882344F4FE01E959FF4F81E090E09183FC
:104D6000808364C0FE01E759FF4F608171818281B9
:104D7000938120E03FEF4FE757E40E941903181694
:104D80000CF043C0FE01E359FF4F608171818281C5
:104D9000938120E030E040E251E40E941F02DC01F8
:104DA000CB018E0109591F4FBC01CD010E94490062
:104DB000DC01CB01F801918380831FC0FE01EB5918
:104DC000FF4F80E991E091838083FE01EB59FF4F13
:104DD000808191810197F1F7FE01EB59FF4F91839B
:104DE0008083DE01A959BF4FFE01E959FF4F808141
:104DF0009181019711969C938E93FE01E959FF4F83
:104E0000808191810097D1F627C08E0109591F4FEB
:104E1000FE01E759FF4F60817181828193810E9479
:104E20004900DC01CB01F80191838083DE01AD599B
:104E3000BF4FFE01E959FF4F808191818D939C9373
:104E4000FE01ED59FF4F808191810197F1F7FE013D
:104E5000ED59FF4F918380830E94C81480E062E087
:104E60000E9477148CE291E00E949F14FE01E954A5
:104E7000FF4F81E08083CCC081E068E00E9477141E
:104E8000FE01E954FF4F8081882F90E0A0E0B0E060
:104E9000BC01CD010E942215FE01E15AFF4F80E0C6
:104EA00090E0A8E4B2E480839183A283B3838E016F
:104EB000055A1F4FFE01E15AFF4F608171818281C7
:104EC000938120E030E04AE755E40E941F02DC01B4
:104ED000CB01F80180839183A283B383FE01E55A5D
:104EE000FF4F608171818281938120E030E040E852
:104EF0005FE30E947903882344F4FE01E75AFF4FE1
:104F000081E090E09183808364C0FE01E55AFF4F09
:104F1000608171818281938120E03FEF4FE757E408
:104F20000E94190318160CF043C0FE01E15AFF4F0E
:104F3000608171818281938120E030E040E251E420
:104F40000E941F02DC01CB018E01075A1F4FBC01DA
:104F5000CD010E944900DC01CB01F80191838083DF
:104F60001FC0FE01E95AFF4F80E991E091838083E1
:104F7000FE01E95AFF4F808191810197F1F7FE010F
:104F8000E95AFF4F91838083DE01A75ABF4FFE018C
:104F9000E75AFF4F80819181019711969C938E93E0
:104FA000FE01E75AFF4F808191810097D1F627C01B
:104FB0008E01075A1F4FFE01E55AFF4F6081718134
:104FC000828193810E944900DC01CB01F801918329
:104FD0008083DE01AB5ABF4FFE01E75AFF4F80814D
:104FE00091818D939C93FE01EB5AFF4F80819181BB
:104FF0000197F1F7FE01EB5AFF4F91838083DE01A9
:10500000A954BF4FFE01E954FF4F80818F5F8C93FD
:10501000FE01E954FF4F80818D3308F42DCF81E0EC
:105020008093C203EBC88091C203833009F0FAC0B9
:105030008091C403882369F40E94C81480E060E072
:105040000E9477148AE391E00E949F1481E080938C
:10505000C4031092C90380E00E944108FE01E65497
:10506000FF4F60817181828193810E94FD03DC0189
:10507000CB01FE01EF5AFF4F80839183A283B3835C
:105080008E01035B1F4FFE01EF5AFF4F608171815C
:105090008281938120E030E04AE755E40E941F02BC
:1050A000DC01CB01F80180839183A283B383FE01ED
:1050B000E35BFF4F608171818281938120E030E06A
:1050C00040E85FE30E947903882344F4FE01E55B36
:1050D000FF4F81E090E09183808364C0FE01E35B39
:1050E000FF4F608171818281938120E03FEF4FE724
:1050F00057E40E94190318160CF043C0FE01EF5A42
:10510000FF4F608171818281938120E030E040E235
:1051100051E40E941F02DC01CB018E01055B1F4F91
:10512000BC01CD010E944900DC01CB01F801918353
:1051300080831FC0FE01E75BFF4F80E991E0918310
:105140008083FE01E75BFF4F808191810197F1F73A
:10515000FE01E75BFF4F91838083DE01A55BBF4FBC
:10516000FE01E55BFF4F80819181019711969C9331
:105170008E93FE01E55BFF4F808191810097D1F610
:1051800028C08E01055B1F4FFE01E35BFF4F60816E
:105190007181828193810E944900DC01CB01F80179
:1051A00091838083DE01A95BBF4FFE01E55BFF4F6A
:1051B0008081918111969C938E93FE01E95BFF4F54
:1051C000808191810197F1F7FE01E95BFF4F9183A7
:1051D00080838091C103882319F486E08093C20301
:1051E0008091C103813059F483E062E00E94150C84
:1051F000882329F483E08093C2030C94FE208091DD
:10520000C103813011F00C94FE2083E062E00E9423
:10521000150C813011F00C94FE208AE08093C203BB
:105220000C94FE208091C203843009F51092AB03E8
:105230001092AA031092AD031092AC031092AF0328
:105240001092AE031092B1031092B0031092C403F7
:105250001092B2031092B3031092B4031092B503EC
:105260001092B60383E08093C2030C94FE208091D9
:10527000C203853009F0D2C080E061E00E94150CC5
:10528000882309F58091C8038823E9F40E94C81493
:1052900080E063E00E94771488E491E00E949F140C
:1052A00081E064E00E94771483E591E00E949F14FE
:1052B00080E066E040E00E940D0B81E08093C8032F
:1052C0001092C7031AC080E061E00E94150C813083
:1052D000A1F48091C703882381F40E94C8148CE54F
:1052E00091E00E949F1480E066E041E00E940D0B77
:1052F00081E08093C7031092C803FE01E654FF4F7C
:1053000060817181828193810E94FD03DC01CB0168
:10531000FE01ED5BFF4F80839183A283B3838E01F7
:10532000015C1F4FFE01ED5BFF4F60817181828147
:10533000938120E030E04AE755E40E941F02DC013F
:10534000CB01F80180839183A283B383FE01FF9692
:10535000608171818281938120E030E040E85FE3E9
:105360000E94790388232CF481E090E09EAF8DAFFA
:1053700046C0FE01FF96608171818281938120E0A9
:105380003FEF4FE757E40E941903181664F5FE013A
:10539000ED5BFF4F608171818281938120E030E07D
:1053A00040E251E40E941F02DC01CB01BC01CD01AF
:1053B0000E944900DC01CB019EAF8DAF0FC080E998
:1053C00091E09CAF8BAF8BAD9CAD0197F1F79CAF9B
:1053D0008BAF8DAD9EAD01979EAF8DAF8DAD9EAD68
:1053E000009769F716C0FE01FF9660817181828186
:1053F00093810E944900DC01CB019EAF8DAF8DAD42
:105400009EAD9AAF89AF89AD9AAD0197F1F79AAF8A
:1054100089AF88E08093C2030C94FE208091C20380
:10542000863049F41092C8031092C70385E0809338
:10543000C2030C94FE208091C203873009F094C20D
:1054400080E062E00E94150C813009F015C1809166
:10545000C603882309F010C10E94C81480E063E0ED
:105460000E9477148CE691E00E949F1481E064E032
:105470000E94771483E591E00E949F14FE01E65498
:10548000FF4F60817181828193810E94FD03DC0165
:10549000CB018DAB9EABAFABB8AF6DA97EA98FA989
:1054A00098AD20E030E04AE755E40E941F02DC019D
:1054B000CB0189AB9AABABABBCAB69A97AA98BA981
:1054C0009CA920E030E040E85FE30E947903882354
:1054D0002CF481E090E098AB8FA73FC069A97AA92E
:1054E0008BA99CA920E03FEF4FE757E40E941903E6
:1054F00018164CF56DA97EA98FA998AD20E030E073
:1055000040E251E40E941F02DC01CB01BC01CD014D
:105510000E944900DC01CB0198AB8FA70FC080E946
:1055200091E09EA78DA78DA59EA50197F1F79EA757
:105530008DA78FA598A9019798AB8FA78FA598A93C
:10554000009769F714C069A97AA98BA99CA90E9440
:105550004900DC01CB0198AB8FA78FA598A99CA728
:105560008BA78BA59CA50197F1F79CA78BA783E040
:105570008093C90383E00E944108FE01E654FF4F77
:1055800060817181828193810E94FD03DC01CB01E6
:105590008FA398A7A9A7BAA76FA178A589A59AA54F
:1055A00020E030E04AE755E40E941F02DC01CB0115
:1055B0008BA39CA3ADA3BEA36BA17CA18DA19EA137
:1055C00020E030E040E85FE30E94790388232CF478
:1055D00081E090E09AA389A33FC06BA17CA18DA13B
:1055E0009EA120E03FEF4FE757E40E9419031816F1
:1055F0004CF56FA178A589A59AA520E030E040E29E
:1056000051E40E941F02DC01CB01BC01CD010E94CC
:105610004900DC01CB019AA389A30FC080E991E086
:1056200098A38F8F8F8D98A10197F1F798A38F8FF3
:1056300089A19AA101979AA389A389A19AA1009708
:1056400069F714C06BA17CA18DA19EA10E944900A5
:10565000DC01CB019AA389A389A19AA19E8F8D8F8A
:105660008D8D9E8D0197F1F79E8F8D8F81E08093B8
:10567000C6031092C5034FC180E062E00E94150C82
:10568000813009F07EC08091C603813009F079C075
:1056900083E08093C90383E00E94410880E090E0AA
:1056A000A0EAB1E4898F9A8FAB8FBC8F698D7A8D18
:1056B0008B8D9C8D20E030E04AE755E40E941F026C
:1056C000DC01CB018D8B9E8BAF8BB88F6D897E8972
:1056D0008F89988D20E030E040E85FE30E947903F5
:1056E00088232CF481E090E09C8B8B8B3FC06D89EC
:1056F0007E898F89988D20E03FEF4FE757E40E9425
:10570000190318164CF5698D7A8D8B8D9C8D20E0D0
:1057100030E040E251E40E941F02DC01CB01BC01F9
:10572000CD010E944900DC01CB019C8B8B8B0FC00B
:1057300080E991E09A8B898B89899A890197F1F7A1
:105740009A8B898B8B899C8901979C8B8B8B8B89FE
:105750009C89009769F7DFC06D897E898F89988D54
:105760000E944900DC01CB019C8B8B8B8B899C892F
:10577000988B8F878F8598890197F1F7988B8F8702
:10578000CAC080E062E00E94150C882309F0A3C023
:105790008091C503882309F09EC080E064E040E06A
:1057A0000E940D0B80E065E040E00E940D0B81E05F
:1057B00062E040E00E940D0B0E94C81480E060E0AF
:1057C0000E94771487E791E00E949F1481E060E0D7
:1057D0000E94771488E891E00E949F14FE01E6542D
:1057E000FF4F60817181828193810E94FD03DC0102
:1057F000CB018B879C87AD87BE876B857C858D852C
:105800009E8520E030E04AE755E40E941F02DC015B
:10581000CB018F839887A987BA876F81788589851F
:105820009A8520E030E040E85FE30E947903882316
:105830002CF481E090E09E838D833FC06F8178855A
:1058400089859A8520E03FEF4FE757E40E941903CE
:1058500018164CF56B857C858D859E8520E030E0A3
:1058600040E251E40E941F02DC01CB01BC01CD01EA
:105870000E944900DC01CB019E838D830FC080E92B
:1058800091E09C838B838B819C810197F1F79C83B2
:105890008B838D819E8101979E838D838D819E81D7
:1058A000009769F714C06F81788589859A850E9471
:1058B0004900DC01CB019E838D838D819E819A837B
:1058C000898389819A810197F1F79A83898381E09D
:1058D0008093C50320C080E062E00E94150C8130F7
:1058E000D1F48091C5038130B1F41092C6031092B7
:1058F000B8031092B7031092BA031092B903109232
:10590000BC031092BB031092BD031092BE03109211
:10591000BF031092C0038091C103882319F48AE069
:105920008093C2038091C103813059F483E063E026
:105930000E94150C882329F487E08093C2030C94FD
:10594000FE208091C103813011F00C94FE2083E091
:1059500062E00E94150C813011F00C94FE208AE068
:105960008093C2030C94FE208091C2038830E9F436
:105970001092C6031092C5031092B8031092B70399
:105980001092BA031092B9031092BC031092BB0399
:105990001092BD031092BE031092BF031092C00379
:1059A00087E08093C2030C94FE208091C20389306B
:1059B00009F077C08091C303882341F40E94C81482
:1059C00081E08093C30381E08093C10380E060E0C5
:1059D0000E947714CE018D529F4F0E94411A88E990
:1059E00091E00E949F14FE01ED52FF4F8281882FAB
:1059F00090E0A0E0B0E0BC01CD010E9422158AE356
:105A00000E943A10FE01ED52FF4F8181882F90E0F5
:105A1000A0E0B0E0BC01CD010E9422158AE30E9403
:105A20003A10FE01ED52FF4F8081882F90E0A0E0F8
:105A3000B0E0BC01CD010E94221581E060E00E942F
:105A4000771480EA91E00E949F14FE01ED52FF4F0F
:105A50008681882F90E0A0E0B0E0BC01CD010E94DB
:105A600022158FE20E943A10FE01ED52FF4F858110
:105A7000882F90E0A0E0B0E0BC01CD010E9422158B
:105A80008FE20E943A10FE01ED52FF4F8481882F71
:105A900090E0A0E0B0E0BC01CD010E9422150C9482
:105AA000FE208091C2038A3011F00C94FE201092E7
:105AB000C30389E08093C2030C94FE20DF93CF934D
:105AC000CDB7DEB78091C903882309F090C10E9449
:105AD000B2099093AB038093AA032091AC03309159
